{
  "contractName": "TicketToken",
  "abi": [
    {
      "inputs": [
        {
          "internalType": "string",
          "name": "_event_name",
          "type": "string"
        },
        {
          "internalType": "string",
          "name": "_symbol",
          "type": "string"
        },
        {
          "internalType": "uint256",
          "name": "tokenPriceWEI",
          "type": "uint256"
        },
        {
          "internalType": "uint256",
          "name": "initialSupply",
          "type": "uint256"
        },
        {
          "internalType": "address",
          "name": "event_owner",
          "type": "address"
        },
        {
          "internalType": "uint256",
          "name": "event_datetime_unix",
          "type": "uint256"
        }
      ],
      "stateMutability": "nonpayable",
      "type": "constructor"
    },
    {
      "anonymous": false,
      "inputs": [
        {
          "indexed": true,
          "internalType": "address",
          "name": "owner",
          "type": "address"
        },
        {
          "indexed": true,
          "internalType": "address",
          "name": "spender",
          "type": "address"
        },
        {
          "indexed": false,
          "internalType": "uint256",
          "name": "value",
          "type": "uint256"
        }
      ],
      "name": "Approval",
      "type": "event"
    },
    {
      "anonymous": false,
      "inputs": [
        {
          "indexed": true,
          "internalType": "address",
          "name": "from",
          "type": "address"
        },
        {
          "indexed": true,
          "internalType": "address",
          "name": "to",
          "type": "address"
        },
        {
          "indexed": false,
          "internalType": "uint256",
          "name": "value",
          "type": "uint256"
        }
      ],
      "name": "Transfer",
      "type": "event"
    },
    {
      "inputs": [],
      "name": "event_name",
      "outputs": [
        {
          "internalType": "string",
          "name": "",
          "type": "string"
        }
      ],
      "stateMutability": "view",
      "type": "function",
      "constant": true
    },
    {
      "inputs": [],
      "name": "symbol",
      "outputs": [
        {
          "internalType": "string",
          "name": "",
          "type": "string"
        }
      ],
      "stateMutability": "view",
      "type": "function",
      "constant": true
    },
    {
      "inputs": [],
      "name": "totalSupply",
      "outputs": [
        {
          "internalType": "uint256",
          "name": "",
          "type": "uint256"
        }
      ],
      "stateMutability": "view",
      "type": "function",
      "constant": true
    },
    {
      "inputs": [
        {
          "internalType": "address",
          "name": "account",
          "type": "address"
        }
      ],
      "name": "balanceOf",
      "outputs": [
        {
          "internalType": "uint256",
          "name": "",
          "type": "uint256"
        }
      ],
      "stateMutability": "view",
      "type": "function",
      "constant": true
    },
    {
      "inputs": [
        {
          "internalType": "address",
          "name": "recipient",
          "type": "address"
        },
        {
          "internalType": "uint256",
          "name": "amount",
          "type": "uint256"
        }
      ],
      "name": "transfer",
      "outputs": [
        {
          "internalType": "bool",
          "name": "",
          "type": "bool"
        }
      ],
      "stateMutability": "nonpayable",
      "type": "function"
    },
    {
      "inputs": [
        {
          "internalType": "address",
          "name": "owner",
          "type": "address"
        },
        {
          "internalType": "address",
          "name": "spender",
          "type": "address"
        }
      ],
      "name": "allowance",
      "outputs": [
        {
          "internalType": "uint256",
          "name": "",
          "type": "uint256"
        }
      ],
      "stateMutability": "view",
      "type": "function",
      "constant": true
    },
    {
      "inputs": [
        {
          "internalType": "address",
          "name": "spender",
          "type": "address"
        },
        {
          "internalType": "uint256",
          "name": "amount",
          "type": "uint256"
        }
      ],
      "name": "approve",
      "outputs": [
        {
          "internalType": "bool",
          "name": "",
          "type": "bool"
        }
      ],
      "stateMutability": "nonpayable",
      "type": "function"
    },
    {
      "inputs": [
        {
          "internalType": "address",
          "name": "sender",
          "type": "address"
        },
        {
          "internalType": "address",
          "name": "recipient",
          "type": "address"
        },
        {
          "internalType": "uint256",
          "name": "amount",
          "type": "uint256"
        }
      ],
      "name": "transferFrom",
      "outputs": [
        {
          "internalType": "bool",
          "name": "",
          "type": "bool"
        }
      ],
      "stateMutability": "nonpayable",
      "type": "function"
    },
    {
      "inputs": [
        {
          "internalType": "uint256",
          "name": "_amount",
          "type": "uint256"
        }
      ],
      "name": "buy",
      "outputs": [
        {
          "internalType": "bool",
          "name": "",
          "type": "bool"
        }
      ],
      "stateMutability": "payable",
      "type": "function",
      "payable": true
    },
    {
      "inputs": [
        {
          "internalType": "uint256",
          "name": "_amount",
          "type": "uint256"
        }
      ],
      "name": "sell",
      "outputs": [
        {
          "internalType": "bool",
          "name": "",
          "type": "bool"
        }
      ],
      "stateMutability": "nonpayable",
      "type": "function"
    },
    {
      "inputs": [],
      "name": "withdraw",
      "outputs": [
        {
          "internalType": "bool",
          "name": "",
          "type": "bool"
        }
      ],
      "stateMutability": "nonpayable",
      "type": "function"
    }
  ],
  "bytecode": "0x60806040523480156200001157600080fd5b5060405162001d4638038062001d468339818101604052810190620000379190620003fe565b85600090805190602001906200004f92919062000111565b5084600190805190602001906200006892919062000111565b5082600281905550600254600360003073ffffffffffffffffffffffffffffffffffffffff1673ffffffffffffffffffffffffffffffffffffffff168152602001908152602001600020819055508360058190555081600660006101000a81548173ffffffffffffffffffffffffffffffffffffffff021916908373ffffffffffffffffffffffffffffffffffffffff160217905550806007819055505050505050506200053c565b8280546200011f9062000507565b90600052602060002090601f0160209004810192826200014357600085556200018f565b82601f106200015e57805160ff19168380011785556200018f565b828001600101855582156200018f579182015b828111156200018e57825182559160200191906001019062000171565b5b5090506200019e9190620001a2565b5090565b5b80821115620001bd576000816000905550600101620001a3565b5090565b6000604051905090565b600080fd5b600080fd5b600080fd5b600080fd5b6000601f19601f8301169050919050565b7f4e487b7100000000000000000000000000000000000000000000000000000000600052604160045260246000fd5b6200022a82620001df565b810181811067ffffffffffffffff821117156200024c576200024b620001f0565b5b80604052505050565b600062000261620001c1565b90506200026f82826200021f565b919050565b600067ffffffffffffffff821115620002925762000291620001f0565b5b6200029d82620001df565b9050602081019050919050565b60005b83811015620002ca578082015181840152602081019050620002ad565b83811115620002da576000848401525b50505050565b6000620002f7620002f18462000274565b62000255565b905082815260208101848484011115620003165762000315620001da565b5b62000323848285620002aa565b509392505050565b600082601f830112620003435762000342620001d5565b5b815162000355848260208601620002e0565b91505092915050565b6000819050919050565b62000373816200035e565b81146200037f57600080fd5b50565b600081519050620003938162000368565b92915050565b600073ffffffffffffffffffffffffffffffffffffffff82169050919050565b6000620003c68262000399565b9050919050565b620003d881620003b9565b8114620003e457600080fd5b50565b600081519050620003f881620003cd565b92915050565b60008060008060008060c087890312156200041e576200041d620001cb565b5b600087015167ffffffffffffffff8111156200043f576200043e620001d0565b5b6200044d89828a016200032b565b965050602087015167ffffffffffffffff811115620004715762000470620001d0565b5b6200047f89828a016200032b565b95505060406200049289828a0162000382565b9450506060620004a589828a0162000382565b9350506080620004b889828a01620003e7565b92505060a0620004cb89828a0162000382565b9150509295509295509295565b7f4e487b7100000000000000000000000000000000000000000000000000000000600052602260045260246000fd5b600060028204905060018216806200052057607f821691505b602082108103620005365762000535620004d8565b5b50919050565b6117fa806200054c6000396000f3fe60806040526004361061009c5760003560e01c806395d89b411161006457806395d89b41146101ae578063a9059cbb146101d9578063cfc4355e14610216578063d96a094a14610241578063dd62ed3e14610271578063e4849b32146102ae5761009c565b8063095ea7b3146100a157806318160ddd146100de57806323b872dd146101095780633ccfd60b1461014657806370a0823114610171575b600080fd5b3480156100ad57600080fd5b506100c860048036038101906100c39190610ea1565b6102eb565b6040516100d59190610efc565b60405180910390f35b3480156100ea57600080fd5b506100f3610302565b6040516101009190610f26565b60405180910390f35b34801561011557600080fd5b50610130600480360381019061012b9190610f41565b61030c565b60405161013d9190610efc565b60405180910390f35b34801561015257600080fd5b5061015b6103b6565b6040516101689190610efc565b60405180910390f35b34801561017d57600080fd5b5061019860048036038101906101939190610f94565b6104fc565b6040516101a59190610f26565b60405180910390f35b3480156101ba57600080fd5b506101c3610545565b6040516101d0919061105a565b60405180910390f35b3480156101e557600080fd5b5061020060048036038101906101fb9190610ea1565b6105d3565b60405161020d9190610efc565b60405180910390f35b34801561022257600080fd5b5061022b6105ea565b604051610238919061105a565b60405180910390f35b61025b6004803603810190610256919061107c565b610678565b6040516102689190610efc565b60405180910390f35b34801561027d57600080fd5b50610298600480360381019061029391906110a9565b6107b5565b6040516102a59190610f26565b60405180910390f35b3480156102ba57600080fd5b506102d560048036038101906102d0919061107c565b61083c565b6040516102e29190610efc565b60405180910390f35b60006102f83384846109c9565b6001905092915050565b6000600254905090565b6000610319848484610b92565b6103ab843384600460008973ffffffffffffffffffffffffffffffffffffffff1673ffffffffffffffffffffffffffffffffffffffff16815260200190815260200160002060003373ffffffffffffffffffffffffffffffffffffffff1673ffffffffffffffffffffffffffffffffffffffff168152602001908152602001600020546103a69190611118565b6109c9565b600190509392505050565b600060075442116103fc576040517f08c379a00000000000000000000000000000000000000000000000000000000081526004016103f3906111be565b60405180910390fd5b600660009054906101000a900473ffffffffffffffffffffffffffffffffffffffff1673ffffffffffffffffffffffffffffffffffffffff163373ffffffffffffffffffffffffffffffffffffffff161461048c576040517f08c379a000000000000000000000000000000000000000000000000000000000815260040161048390611250565b60405180910390fd5b600660009054906101000a900473ffffffffffffffffffffffffffffffffffffffff1673ffffffffffffffffffffffffffffffffffffffff166108fc479081150290604051600060405180830381858888f193505050501580156104f4573d6000803e3d6000fd5b506001905090565b6000600360008373ffffffffffffffffffffffffffffffffffffffff1673ffffffffffffffffffffffffffffffffffffffff168152602001908152602001600020549050919050565b600180546105529061129f565b80601f016020809104026020016040519081016040528092919081815260200182805461057e9061129f565b80156105cb5780601f106105a0576101008083540402835291602001916105cb565b820191906000526020600020905b8154815290600101906020018083116105ae57829003601f168201915b505050505081565b60006105e0338484610b92565b6001905092915050565b600080546105f79061129f565b80601f01602080910402602001604051908101604052809291908181526020018280546106239061129f565b80156106705780601f1061064557610100808354040283529160200191610670565b820191906000526020600020905b81548152906001019060200180831161065357829003601f168201915b505050505081565b60006005548261068891906112d0565b34146106c9576040517f08c379a00000000000000000000000000000000000000000000000000000000081526004016106c090611376565b60405180910390fd5b81600360003073ffffffffffffffffffffffffffffffffffffffff1673ffffffffffffffffffffffffffffffffffffffff16815260200190815260200160002054101561074b576040517f08c379a0000000000000000000000000000000000000000000000000000000008152600401610742906113e2565b60405180910390fd5b610756303384610b92565b81600360003073ffffffffffffffffffffffffffffffffffffffff1673ffffffffffffffffffffffffffffffffffffffff16815260200190815260200160002060008282546107a59190611118565b9250508190555060019050919050565b6000600460008473ffffffffffffffffffffffffffffffffffffffff1673ffffffffffffffffffffffffffffffffffffffff16815260200190815260200160002060008373ffffffffffffffffffffffffffffffffffffffff1673ffffffffffffffffffffffffffffffffffffffff16815260200190815260200160002054905092915050565b600081600360003373ffffffffffffffffffffffffffffffffffffffff1673ffffffffffffffffffffffffffffffffffffffff1681526020019081526020016000205410156108c0576040517f08c379a00000000000000000000000000000000000000000000000000000000081526004016108b790611474565b60405180910390fd5b81600360003373ffffffffffffffffffffffffffffffffffffffff1673ffffffffffffffffffffffffffffffffffffffff168152602001908152602001600020600082825461090f9190611118565b9250508190555081600360003073ffffffffffffffffffffffffffffffffffffffff1673ffffffffffffffffffffffffffffffffffffffff16815260200190815260200160002060008282546109659190611494565b925050819055503373ffffffffffffffffffffffffffffffffffffffff166108fc6005548461099491906112d0565b9081150290604051600060405180830381858888f193505050501580156109bf573d6000803e3d6000fd5b5060019050919050565b600073ffffffffffffffffffffffffffffffffffffffff168373ffffffffffffffffffffffffffffffffffffffff1603610a38576040517f08c379a0000000000000000000000000000000000000000000000000000000008152600401610a2f9061155c565b60405180910390fd5b600073ffffffffffffffffffffffffffffffffffffffff168273ffffffffffffffffffffffffffffffffffffffff1603610aa7576040517f08c379a0000000000000000000000000000000000000000000000000000000008152600401610a9e906115ee565b60405180910390fd5b80600460008573ffffffffffffffffffffffffffffffffffffffff1673ffffffffffffffffffffffffffffffffffffffff16815260200190815260200160002060008473ffffffffffffffffffffffffffffffffffffffff1673ffffffffffffffffffffffffffffffffffffffff168152602001908152602001600020819055508173ffffffffffffffffffffffffffffffffffffffff168373ffffffffffffffffffffffffffffffffffffffff167f8c5be1e5ebec7d5bd14f71427d1e84f3dd0314c0f7b2291e5b200ac8c7c3b92583604051610b859190610f26565b60405180910390a3505050565b600073ffffffffffffffffffffffffffffffffffffffff168373ffffffffffffffffffffffffffffffffffffffff1603610c01576040517f08c379a0000000000000000000000000000000000000000000000000000000008152600401610bf890611680565b60405180910390fd5b600073ffffffffffffffffffffffffffffffffffffffff168273ffffffffffffffffffffffffffffffffffffffff1603610c70576040517f08c379a0000000000000000000000000000000000000000000000000000000008152600401610c6790611712565b60405180910390fd5b80600360008573ffffffffffffffffffffffffffffffffffffffff1673ffffffffffffffffffffffffffffffffffffffff168152602001908152602001600020541015610cf2576040517f08c379a0000000000000000000000000000000000000000000000000000000008152600401610ce9906117a4565b60405180910390fd5b80600360008573ffffffffffffffffffffffffffffffffffffffff1673ffffffffffffffffffffffffffffffffffffffff1681526020019081526020016000206000828254610d419190611118565b9250508190555080600360008473ffffffffffffffffffffffffffffffffffffffff1673ffffffffffffffffffffffffffffffffffffffff1681526020019081526020016000206000828254610d979190611494565b925050819055508173ffffffffffffffffffffffffffffffffffffffff168373ffffffffffffffffffffffffffffffffffffffff167fddf252ad1be2c89b69c2b068fc378daa952ba7f163c4a11628f55a4df523b3ef83604051610dfb9190610f26565b60405180910390a3505050565b600080fd5b600073ffffffffffffffffffffffffffffffffffffffff82169050919050565b6000610e3882610e0d565b9050919050565b610e4881610e2d565b8114610e5357600080fd5b50565b600081359050610e6581610e3f565b92915050565b6000819050919050565b610e7e81610e6b565b8114610e8957600080fd5b50565b600081359050610e9b81610e75565b92915050565b60008060408385031215610eb857610eb7610e08565b5b6000610ec685828601610e56565b9250506020610ed785828601610e8c565b9150509250929050565b60008115159050919050565b610ef681610ee1565b82525050565b6000602082019050610f116000830184610eed565b92915050565b610f2081610e6b565b82525050565b6000602082019050610f3b6000830184610f17565b92915050565b600080600060608486031215610f5a57610f59610e08565b5b6000610f6886828701610e56565b9350506020610f7986828701610e56565b9250506040610f8a86828701610e8c565b9150509250925092565b600060208284031215610faa57610fa9610e08565b5b6000610fb884828501610e56565b91505092915050565b600081519050919050565b600082825260208201905092915050565b60005b83811015610ffb578082015181840152602081019050610fe0565b8381111561100a576000848401525b50505050565b6000601f19601f8301169050919050565b600061102c82610fc1565b6110368185610fcc565b9350611046818560208601610fdd565b61104f81611010565b840191505092915050565b600060208201905081810360008301526110748184611021565b905092915050565b60006020828403121561109257611091610e08565b5b60006110a084828501610e8c565b91505092915050565b600080604083850312156110c0576110bf610e08565b5b60006110ce85828601610e56565b92505060206110df85828601610e56565b9150509250929050565b7f4e487b7100000000000000000000000000000000000000000000000000000000600052601160045260246000fd5b600061112382610e6b565b915061112e83610e6b565b925082821015611141576111406110e9565b5b828203905092915050565b7f43616e6e6f7420776974686472617720756e74696c206166746572206576656e60008201527f7400000000000000000000000000000000000000000000000000000000000000602082015250565b60006111a8602183610fcc565b91506111b38261114c565b604082019050919050565b600060208201905081810360008301526111d78161119b565b9050919050565b7f4f6e6c79206f776e65722063616e20747269676765722077697468647261776160008201527f6c00000000000000000000000000000000000000000000000000000000000000602082015250565b600061123a602183610fcc565b9150611245826111de565b604082019050919050565b600060208201905081810360008301526112698161122d565b9050919050565b7f4e487b7100000000000000000000000000000000000000000000000000000000600052602260045260246000fd5b600060028204905060018216806112b757607f821691505b6020821081036112ca576112c9611270565b5b50919050565b60006112db82610e6b565b91506112e683610e6b565b9250817fffffffffffffffffffffffffffffffffffffffffffffffffffffffffffffffff048311821515161561131f5761131e6110e9565b5b828202905092915050565b7f4e65656420746f2073656e6420657861637420616d6f756e74206f6620776569600082015250565b6000611360602083610fcc565b915061136b8261132a565b602082019050919050565b6000602082019050818103600083015261138f81611353565b9050919050565b7f536f727279202d20616c6c20736f6c64206f7574000000000000000000000000600082015250565b60006113cc601483610fcc565b91506113d782611396565b602082019050919050565b600060208201905081810360008301526113fb816113bf565b9050919050565b7f596f7520646f6e277420686176652074686174206d616e79207469636b65747360008201527f2100000000000000000000000000000000000000000000000000000000000000602082015250565b600061145e602183610fcc565b915061146982611402565b604082019050919050565b6000602082019050818103600083015261148d81611451565b9050919050565b600061149f82610e6b565b91506114aa83610e6b565b9250827fffffffffffffffffffffffffffffffffffffffffffffffffffffffffffffffff038211156114df576114de6110e9565b5b828201905092915050565b7f45524332303a20617070726f76652066726f6d20746865207a65726f2061646460008201527f7265737300000000000000000000000000000000000000000000000000000000602082015250565b6000611546602483610fcc565b9150611551826114ea565b604082019050919050565b6000602082019050818103600083015261157581611539565b9050919050565b7f45524332303a20617070726f766520746f20746865207a65726f20616464726560008201527f7373000000000000000000000000000000000000000000000000000000000000602082015250565b60006115d8602283610fcc565b91506115e38261157c565b604082019050919050565b60006020820190508181036000830152611607816115cb565b9050919050565b7f45524332303a207472616e736665722066726f6d20746865207a65726f20616460008201527f6472657373000000000000000000000000000000000000000000000000000000602082015250565b600061166a602583610fcc565b91506116758261160e565b604082019050919050565b600060208201905081810360008301526116998161165d565b9050919050565b7f45524332303a207472616e7366657220746f20746865207a65726f206164647260008201527f6573730000000000000000000000000000000000000000000000000000000000602082015250565b60006116fc602383610fcc565b9150611707826116a0565b604082019050919050565b6000602082019050818103600083015261172b816116ef565b9050919050565b7f45524332303a207472616e7366657220616d6f756e742065786365656473206260008201527f616c616e63650000000000000000000000000000000000000000000000000000602082015250565b600061178e602683610fcc565b915061179982611732565b604082019050919050565b600060208201905081810360008301526117bd81611781565b905091905056fea2646970667358221220e1d1fa7d5ed1518711507b4c978eb57983941608e4d64bcdc2be1d05b21507e864736f6c634300080d0033",
  "immutableReferences": {},
  "source": "// SPDX-License-Identifier: MIT\npragma solidity ^0.8.13;\n\ninterface IERC20 {\n\tfunction totalSupply() external view returns (uint256);\n\tfunction balanceOf(address account) external view returns (uint256);\n\tfunction transfer(address recipient, uint256 amount) external returns (bool);\n\tfunction allowance(address owner, address spender) external view returns (uint256);\n\tfunction approve(address spender, uint256 amount) external returns (bool);\n\tfunction transferFrom(\n\t\taddress sender,\n\t\taddress recipient,\n\t\tuint256 amount\n\t) external returns (bool);\n\n\tevent Transfer(address indexed from, address indexed to, uint256 value);\n\tevent Approval(address indexed owner, address indexed spender, uint256 value);\n}\n\ncontract TicketToken is IERC20 {\n\tstring public event_name;\n\tstring public symbol;\n\tuint256 private _totalSupply;\n\tmapping(address => uint256) private _balances;\n\tmapping(address => mapping(address => uint256)) private _allowances;\n\n\tuint256 private _tokenPrice;\n\taddress private _event_owner;\n\tuint private _event_datetime_unix;\n\n\tconstructor(\n\t\tstring memory _event_name,\n\t\tstring memory _symbol,\n\t\tuint256 tokenPriceWEI,\n\t\tuint256 initialSupply,\n\t\taddress event_owner,\n\t\tuint event_datetime_unix\n\t) {\n\t\tevent_name = _event_name;\n\t\tsymbol = _symbol;\n\t\t_totalSupply = initialSupply;\n\t\t_balances[address(this)] = _totalSupply;\n\t\t_tokenPrice = tokenPriceWEI;\n\t\t_event_owner = event_owner;\n\t\t_event_datetime_unix = event_datetime_unix;\n\t}\n\n\tfunction totalSupply() external view override returns (uint256) {\n\t\treturn _totalSupply;\n\t}\n\n\tfunction balanceOf(address account) external view override returns (uint256) {\n\t\treturn _balances[account];\n\t}\n\n\tfunction transfer(address recipient, uint256 amount) external override returns (bool) {\n\t\t_transfer(msg.sender, recipient, amount);\n\t\treturn true;\n\t}\n\n\tfunction allowance(address owner, address spender) external view override returns (uint256) {\n\t\treturn _allowances[owner][spender];\n\t}\n\n\tfunction approve(address spender, uint256 amount) external override returns (bool) {\n\t\t_approve(msg.sender, spender, amount);\n\t\treturn true;\n\t}\n\n\tfunction transferFrom(\n\t\taddress sender,\n\t\taddress recipient,\n\t\tuint256 amount\n\t) external override returns (bool) {\n\t\t_transfer(sender, recipient, amount);\n\t\t_approve(sender, msg.sender, _allowances[sender][msg.sender] - amount);\n\t\treturn true;\n\t}\n\n\tfunction buy(uint256 _amount) external payable returns (bool) {\n\t\trequire(msg.value == _amount * _tokenPrice, 'Need to send exact amount of wei');\n\t\trequire(_balances[address(this)] >= _amount, 'Sorry - all sold out');\n\n\t\t_transfer(address(this), msg.sender, _amount);\n\n\t\t_balances[address(this)] -= _amount;\n\n\t\treturn true;\n\t}\n\n\tfunction sell(uint256 _amount) external returns (bool) {\n\t\trequire(_balances[msg.sender] >= _amount, \"You don't have that many tickets!\");\n\t\t_balances[msg.sender] -= _amount;\n\t\t_balances[address(this)] += _amount;\n\t\tpayable(msg.sender).transfer(_amount * _tokenPrice);\n\t\treturn true;\n\t}\n\n\tfunction withdraw() external returns (bool) {\n\t\trequire(block.timestamp > _event_datetime_unix, 'Cannot withdraw until after event');\n\t\trequire(msg.sender == _event_owner, 'Only owner can trigger withdrawal');\n\t\tpayable(_event_owner).transfer(address(this).balance);\n\t\treturn true;\n\t}\n\n\tfunction _transfer(address sender, address recipient, uint256 amount) internal {\n\t\trequire(sender != address(0), 'ERC20: transfer from the zero address');\n\t\trequire(recipient != address(0), 'ERC20: transfer to the zero address');\n\t\trequire(_balances[sender] >= amount, 'ERC20: transfer amount exceeds balance');\n\n\t\t_balances[sender] -= amount;\n\t\t_balances[recipient] += amount;\n\t\temit Transfer(sender, recipient, amount);\n\t}\n\n\tfunction _approve(address owner, address spender, uint256 amount) internal {\n\t\trequire(owner != address(0), 'ERC20: approve from the zero address');\n\t\trequire(spender != address(0), 'ERC20: approve to the zero address');\n\n\t\t_allowances[owner][spender] = amount;\n\t\temit Approval(owner, spender, amount);\n\t}\n}\n",
  "sourcePath": "/Users/conor/ISE/blockchain/blockchain-project/contract/contracts/TicketToken.sol",
  "compiler": {
    "name": "solc",
    "version": "0.8.13+commit.abaa5c0e.Emscripten.clang"
  },
  "schemaVersion": "3.4.16",
  "updatedAt": "2024-05-03T12:23:22.286Z",
  "networkType": "ethereum",
  "devdoc": {
    "kind": "dev",
    "methods": {},
    "version": 1
  },
  "userdoc": {
    "kind": "user",
    "methods": {},
    "version": 1
  }
}